:020000040800F2
:1000000000500020A9300008552B00085D2B000887
:10001000652B00086D2B0008752B00080000000000
:100020000000000000000000000000007D2B000820
:10003000892B000800000000952B0008A12B000868
:10004000F1300008F1300008F1300008F13000080C
:10005000F1300008F1300008F1300008F1300008FC
:10006000F1300008F1300008F1300008F1300008EC
:10007000F1300008F1300008F1300008F1300008DC
:10008000F1300008F1300008F1300008F1300008CC
:10009000F1300008F1300008F1300008F1300008BC
:1000A000F1300008F1300008F1300008F1300008AC
:1000B000F1300008F1300008F1300008F13000089C
:1000C000F1300008F1300008F1300008F13000088C
:1000D000F1300008AD2B0008C12B0008F1300008FA
:1000E000F1300008F1300008F13000080000000095
:1000F0000000000000000000000000000000000000
:0C01000000000000000000005FF808F1A3
:1001100010B5054C237833B9044B13B10448AFF341
:1001200000800123237010BDD401002000000000D6
:100130001C95000808B5034B1BB103490348AFF3F6
:10014000008008BD00000000D80100201C950008B8
:10015000034613F8012B002AFBD1181A0138704707
:1001600081F0004102E000BF83F0004330B54FEA68
:1001700041044FEA430594EA050F08BF90EA020FD5
:100180001FBF54EA000C55EA020C7FEA645C7FEA68
:10019000655C00F0E2804FEA5454D4EB5555B8BF8B
:1001A0006D420CDD2C4480EA020281EA030382EAFC
:1001B000000083EA010180EA020281EA0303362D8E
:1001C00088BF30BD11F0004F4FEA01314FF4801C61
:1001D0004CEA113102D0404261EB410113F0004F73
:1001E0004FEA03334CEA133302D0524263EB43032A
:1001F00094EA050F00F0A780A4F10104D5F1200EC8
:100200000DDB02FA0EFC22FA05F2801841F1000122
:1002100003FA0EF2801843FA05F359410EE0A5F1F6
:1002200020050EF1200E012A03FA0EFC28BF4CF027
:10023000020C43FA05F3C01851EBE37101F00045DD
:1002400007D54FF0000EDCF1000C7EEB00006EEBEA
:100250000101B1F5801F1BD3B1F5001F0CD3490874
:100260005FEA30004FEA3C0C04F101044FEA4452CB
:1002700012F5800F80F09A80BCF1004F08BF5FEA52
:10028000500C50F1000041EB045141EA050130BD32
:100290005FEA4C0C404141EB0101013C28BFB1F544
:1002A000801FE9D291F0000F04BF01460020B1FA8F
:1002B00081F308BF2033A3F10B03B3F120020CDA62
:1002C0000C3208DD02F1140CC2F10C0201FA0CF040
:1002D00021FA02F10CE002F11402D8BFC2F1200CA5
:1002E00001FA02F120FA0CFCDCBF41EA0C0190405B
:1002F000E41AA2BF01EB0451294330BD6FEA0404A4
:100300001F3C1CDA0C340EDC04F11404C4F120028E
:1003100020FA04F001FA02F340EA030021FA04F3A0
:1003200045EA030130BDC4F10C04C4F1200220FAF7
:1003300002F001FA04F340EA0300294630BD21FA35
:1003400004F0294630BD94F0000F83F4801306BFFB
:1003500081F480110134013D4EE77FEA645C18BFEF
:100360007FEA655C29D094EA050F08BF90EA020F86
:1003700005D054EA000C04BF1946104630BD91EA7E
:10038000030F1EBF0021002030BD5FEA545C05D181
:100390004000494128BF41F0004130BD14F58004C0
:1003A0003CBF01F5801130BD01F0004545F0FE4134
:1003B00041F470014FF0000030BD7FEA645C1ABF69
:1003C000194610467FEA655C1CBF0B46024650EAA0
:1003D000013406BF52EA033591EA030F41F40021CC
:1003E00030BD00BF90F0000F04BF0021704730B552
:1003F0004FF4806404F132044FF000054FF0000127
:1004000050E700BF90F0000F04BF0021704730B5E7
:100410004FF4806404F1320410F0004548BF4042BC
:100420004FF000013EE700BF42004FEAE2014FEA11
:1004300031014FEA02701FBF12F07F4393F07F4FEC
:1004400081F06051704732F07F4208BF704793F0EF
:100450007F4F04BF41F40021704730B54FF4607402
:1004600001F0004521F000411CE700BF50EA010205
:1004700008BF704730B54FF000050AE050EA0102AE
:1004800008BF704730B511F0004502D5404261EB1E
:1004900041014FF4806404F132045FEA915C3FF45F
:1004A000D8AE4FF003025FEADC0C18BF03325FEAFC
:1004B000DC0C18BF033202EBDC02C2F1200300FAAD
:1004C00003FC20FA02F001FA03FE40EA0E0021FAD2
:1004D00002F11444BDE600BF70B54FF0FF0C4CF4C0
:1004E000E06C1CEA11541DBF1CEA135594EA0C0F72
:1004F00095EA0C0F00F0DEF82C4481EA030621EAAD
:100500004C5123EA4C5350EA013518BF52EA0335E7
:1005100041F4801143F4801338D0A0FB02CE4FF099
:100520000005E1FB02E506F00042E0FB03E54FF0C9
:100530000006E1FB03569CF0000F18BF4EF0010EC1
:10054000A4F1FF04B6F5007F64F5407404D25FEABD
:100550004E0E6D4146EB060642EAC62141EA555170
:100560004FEAC52040EA5E504FEACE2EB4F1FD0CB2
:1005700088BFBCF5E06F1ED8BEF1004F08BF5FEA30
:10058000500E50F1000041EB045170BD06F00046E2
:1005900046EA010140EA020081EA0301B4EB5C048F
:1005A000C2BFD4EB0C0541EA045170BD41F4801187
:1005B0004FF0000E013C00F3AB8014F1360FDEBFAC
:1005C000002001F0004170BDC4F10004203C35DA88
:1005D0000C341BDC04F11404C4F1200500FA05F30B
:1005E00020FA04F001FA05F240EA020001F00042AC
:1005F00021F0004110EBD37021FA04F642EB060122
:100600005EEA430E08BF20EAD37070BDC4F10C044B
:10061000C4F1200500FA04F320FA05F001FA04F20F
:1006200040EA020001F0004110EBD37041F10001FB
:100630005EEA430E08BF20EAD37070BDC4F1200506
:1006400000FA05F24EEA020E20FA04F301FA05F26E
:1006500043EA020321FA04F001F0004121FA04F216
:1006600020EA020000EBD3705EEA430E08BF20EAE6
:10067000D37070BD94F0000F0FD101F00046400020
:1006800041EB010111F4801F08BF013CF7D041EAA2
:10069000060195F0000F18BF704703F000465200A6
:1006A00043EB030313F4801F08BF013DF7D043EA77
:1006B0000603704794EA0C0F0CEA135518BF95EA2D
:1006C0000C0F0CD050EA410618BF52EA4306D1D1B4
:1006D00081EA030101F000414FF0000070BD50EAD3
:1006E000410606BF1046194652EA430619D094EA5D
:1006F0000C0F02D150EA013613D195EA0C0F05D147
:1007000052EA03361CBF104619460AD181EA03019A
:1007100001F0004141F0FE4141F470014FF0000052
:1007200070BD41F0FE4141F4780170BD70B54FF0ED
:10073000FF0C4CF4E06C1CEA11541DBF1CEA13556D
:1007400094EA0C0F95EA0C0F00F0A7F8A4EB05044F
:1007500081EA030E52EA03354FEA013100F0888046
:100760004FEA03334FF0805545EA131343EA12630F
:100770004FEA022245EA111545EA10654FEA0026C4
:100780000EF000419D4208BF964244F1FD0404F57D
:10079000407402D25B084FEA3202B61A65EB0305D9
:1007A0005B084FEA32024FF480104FF4002CB6EB96
:1007B000020E75EB030E22BFB61A754640EA0C0016
:1007C0005B084FEA3202B6EB020E75EB030E22BF56
:1007D000B61A754640EA5C005B084FEA3202B6EB97
:1007E000020E75EB030E22BFB61A754640EA9C0056
:1007F0005B084FEA3202B6EB020E75EB030E22BF26
:10080000B61A754640EADC0055EA060E18D04FEAE3
:10081000051545EA16754FEA06164FEAC30343EA83
:1008200052734FEAC2025FEA1C1CC0D111F4801F50
:100830000BD141EA00014FF000004FF0004CB6E749
:1008400011F4801F04BF01430020B4F1FD0C88BFE8
:10085000BCF5E06F3FF6AFAEB5EB030C04BFB6EBF3
:10086000020C5FEA500C50F1000041EB045170BDE6
:100870000EF0004E4EEA113114EB5C04C2BFD4EB13
:100880000C0541EA045170BD41F480114FF0000E97
:10089000013C90E645EA060E8DE60CEA135594EA13
:1008A0000C0F08BF95EA0C0F3FF43BAF94EA0C0F16
:1008B0000AD150EA01347FF434AF95EA0C0F7FF48B
:1008C00025AF104619462CE795EA0C0F06D152EADF
:1008D00003353FF4FDAE1046194622E750EA4106C3
:1008E00018BF52EA43067FF4C5AE50EA41047FF4D4
:1008F0000DAF52EA43057FF4EBAE12E74FF0FF3C39
:1009000006E000BF4FF0010C02E000BF4FF0010C09
:100910004DF804CD4FEA410C7FEA6C5C4FEA430C82
:1009200018BF7FEA6C5C1BD001B050EA410C0CBFD1
:1009300052EA430C91EA030F02BF90EA020F002033
:10094000704710F1000F91EA030F58BF994208BF9A
:1009500090422CBFD8176FEAE37040F00100704757
:100960004FEA410C7FEA6C5C02D150EA013C07D1AE
:100970004FEA430C7FEA6C5CD6D152EA033CD3D0F9
:100980005DF8040B704700BF8446104662468C46F3
:100990001946634600E000BF01B5FFF7B7FF002826
:1009A00048BF10F1000F01BD4DF808EDFFF7F4FF4F
:1009B0000CBF012000205DF808FB00BF4DF808EDDA
:1009C000FFF7EAFF34BF012000205DF808FB00BFFD
:1009D0004DF808EDFFF7E0FF94BF012000205DF81F
:1009E00008FB00BF4DF808EDFFF7CEFF94BF0120D4
:1009F00000205DF808FB00BF4DF808EDFFF7C4FFCD
:100A000034BF012000205DF808FB00BF4FEA410C15
:100A10007FEA6C5C02D150EA013C0AD14FEA430CF8
:100A20007FEA6C5C02D152EA033C02D14FF0000035
:100A300070474FF0010070474FEA410212F5001273
:100A400015D211D56FF47873B3EB625212D94FEA15
:100A5000C12343F0004343EA505311F0004F23FAFF
:100A600002F018BF404270474FF00000704750EA54
:100A7000013005D111F0004008BF6FF00040704711
:100A80004FF00000704700BF4FEA4102B2F1E0436F
:100A900024BFB3F5001CDCF1FE5C0DD901F0004C65
:100AA0004FEAC0024CEA5070B2F1004F40EB8300B5
:100AB00008BF20F00100704711F0804F21D113F1E1
:100AC0003872BCBF01F00040704741F480114FEA1A
:100AD0005252C2F11802C2F1200C10FA0CF320FAA3
:100AE00002F018BF40F001004FEAC1234FEAD323C0
:100AF00003FA0CFC40EA0C0023FA02F34FEA43032A
:100B0000CCE77FEA625307D150EA01331EBF4FF0B2
:100B1000FE4040F44000704701F0004040F0FE40CD
:100B200040F40000704700BF80F0004002E000BFCA
:100B300081F0004142001FBF5FEA410392EA030FC8
:100B40007FEA226C7FEA236C6AD04FEA1262D2EB12
:100B50001363C1BFD218414048404140B8BF5B4217
:100B6000192B88BF704710F0004F40F4000020F0B0
:100B70007F4018BF404211F0004F41F4000121F0C6
:100B80007F4118BF494292EA030F3FD0A2F1010210
:100B900041FA03FC10EB0C00C3F1200301FA03F14E
:100BA00000F0004302D5494260EB4000B0F5000F71
:100BB00013D3B0F1807F06D340084FEA310102F130
:100BC0000102FE2A51D2B1F1004F40EBC25008BFE2
:100BD00020F0010040EA03007047490040EB0000AC
:100BE000013A28BFB0F5000FEDD2B0FA80FCACF1AD
:100BF000080CB2EB0C0200FA0CF0AABF00EBC250DA
:100C000052421843BCBFD0401843704792F0000FC7
:100C100081F4000106BF80F400000132013BB5E71A
:100C20004FEA41037FEA226C18BF7FEA236C21D090
:100C300092EA030F04D092F0000F08BF08467047F5
:100C400090EA010F1CBF0020704712F07F4F04D1C3
:100C5000400028BF40F00040704712F100723CBFD6
:100C600000F50000704700F0004343F0FE4040F400
:100C7000000070477FEA226216BF08467FEA2363BE
:100C80000146420206BF5FEA412390EA010F40F4A9
:100C9000800070474FF0000304E000BF10F00043F5
:100CA00048BF40425FEA000C08BF704743F09643DC
:100CB00001464FF000001CE050EA010208BF7047F7
:100CC0004FF000030AE000BF50EA010208BF70477E
:100CD00011F0004302D5404261EB41015FEA010C93
:100CE00002BF84460146002043F0B64308BFA3F18B
:100CF0008053A3F50003BCFA8CF2083AA3EBC2536D
:100D000010DB01FA02FC634400FA02FCC2F120028B
:100D1000BCF1004F20FA02F243EB020008BF20F0C2
:100D20000100704702F1200201FA02FCC2F1200228
:100D300050EA4C0021FA02F243EB020008BF20EA1D
:100D4000DC7070474FF0FF0C1CEAD0521EBF1CEA4B
:100D5000D15392EA0C0F93EA0C0F6FD01A4480EA39
:100D6000010C400218BF5FEA41211ED04FF0006322
:100D700043EA501043EA5111A0FB01310CF000404E
:100D8000B1F5000F3EBF490041EAD3715B0040EA74
:100D9000010062F17F02FD2A1DD8B3F1004F40EB44
:100DA000C25008BF20F00100704790F0000F0CF017
:100DB000004C08BF49024CEA502040EA51207F3ADB
:100DC000C2BFD2F1FF0340EAC250704740F40000B6
:100DD0004FF00003013A5DDC12F1190FDCBF00F0A7
:100DE00000407047C2F10002410021FA02F1C2F155
:100DF000200200FA02FC5FEA310040F1000053EAF1
:100E00004C0308BF20EADC70704792F0000F00F03E
:100E1000004C02BF400010F4000F013AF9D040EA44
:100E20000C0093F0000F01F0004C02BF490011F4D8
:100E3000000F013BF9D041EA0C018FE70CEAD153D6
:100E400092EA0C0F18BF93EA0C0F0AD030F0004C56
:100E500018BF31F0004CD8D180EA010000F000400A
:100E6000704790F0000F17BF90F0004F084691F0C8
:100E7000000F91F0004F14D092EA0C0F01D1420202
:100E80000FD193EA0C0F03D14B0218BF084608D1CB
:100E900080EA010000F0004040F0FE4040F4000015
:100EA000704740F0FE4040F4400070474FF0FF0CA8
:100EB0001CEAD0521EBF1CEAD15392EA0C0F93EAEF
:100EC0000C0F69D0A2EB030280EA010C49024FEA41
:100ED000402037D04FF0805343EA111143EA1013FA
:100EE0000CF000408B4238BF5B0042F17D024FF4B2
:100EF000000C8B4224BF5B1A40EA0C00B3EB510F8D
:100F000024BFA3EB510340EA5C00B3EB910F24BF75
:100F1000A3EB910340EA9C00B3EBD10F24BFA3EBFA
:100F2000D10340EADC001B0118BF5FEA1C1CE0D1C2
:100F3000FD2A3FF650AF8B4240EBC25008BF20F075
:100F4000010070470CF0004C4CEA50207F32C2BFC9
:100F5000D2F1FF0340EAC250704740F400004FF066
:100F60000003013A37E792F0000F00F0004C02BF97
:100F7000400010F4000F013AF9D040EA0C0093F061
:100F8000000F01F0004C02BF490011F4000F013BBB
:100F9000F9D041EA0C0195E70CEAD15392EA0C0F23
:100FA00008D142027FF47DAF93EA0C0F7FF470AF5B
:100FB000084676E793EA0C0F04D14B023FF44CAF9E
:100FC00008466EE730F0004C18BF31F0004CCAD133
:100FD00030F000427FF45CAF31F000437FF43CAF6F
:100FE0005FE700BF4FF0FF3C06E000BF4FF0010C91
:100FF00002E000BF4FF0010C4DF804CD4FEA400273
:101000004FEA41037FEA226C18BF7FEA236C11D0BC
:1010100001B052EA530C18BF90EA010F58BFB2EB6F
:10102000030088BFC81738BF6FEAE17018BF40F0EF
:10103000010070477FEA226C02D15FEA402C05D1A3
:101040007FEA236CE4D15FEA412CE1D05DF8040B28
:10105000704700BF844608466146FFE70FB5FFF7BB
:10106000C9FF002848BF10F1000F0FBD4DF808ED73
:10107000FFF7F4FF0CBF012000205DF808FB00BF64
:101080004DF808EDFFF7EAFF34BF012000205DF8BE
:1010900008FB00BF4DF808EDFFF7E0FF94BF01200B
:1010A00000205DF808FB00BF4DF808EDFFF7D2FF08
:1010B00094BF012000205DF808FB00BF4DF808ED4B
:1010C000FFF7C8FF34BF012000205DF808FB00BF18
:1010D00080B487B000AFF860B9607A60FB685B6885
:1010E0007A689A4201D8002314E0FB685B68591CB7
:1010F000FA6851601B01BA6813447B617B694FF049
:10110000FF329A607B699A687B695A607B6900222A
:10111000DA607B6918461C37BD4680BC704780B4D6
:1011200085B000AFF8607A603B600B46FB72FB68ED
:10113000FA7A1A70FB687A685A60FB683A689A60B3
:10114000FB680022DA6000BF1437BD4680BC7047E0
:1011500080B586B000AFF860B9607A603B60FB682C
:101160001B687B613FE0FB681B68BA6813441B780F
:101170007D2B45D07D2B1CDC5D2B41D05D2B18DCFD
:101180003A2B16DC202B04DA0A2B10DC092B37DA79
:101190000FE0203B314A22FA03F303F00103002B56
:1011A00014BF01230023DBB2002B29D101E00D2B5A
:1011B00026D000BFFB681B68BA6813441B781F2B3E
:1011C00006D9FB681B68BA6813441B787E2B05D9C7
:1011D0007A69FB681A606FF001033AE0FB681B68EC
:1011E0005A1CFB681A60FB681B687A689A4209D926
:1011F000FB681B68BA6813441B78002BB3D101E06D
:1012000000BF00E000BF3B68002B06D1FB681B68F5
:101210005A1EFB681A6000231BE03A6A3968F868B6
:10122000FFF756FF38613B69002B05D17A69FB68EF
:101230001A604FF0FF330CE0FB681B687A690821E5
:101240003869FFF76CFFFB681B685A1EFB681A6061
:10125000002318461837BD4680BD00BF01100004AA
:1012600080B588B000AFF860B9607A603B60FB6819
:101270001B68BB61FB681B685A1CFB681A60BAE0FC
:10128000FB681B68BA6813441B78FB75FB7D222B37
:101290001DD13B68002B01D10023BEE0BA6A39683A
:1012A000F868FFF715FF38613B69002B05D1BA6973
:1012B000FB681A604FF0FF33AFE0BB695A1CFB6854
:1012C0001B6804213869FFF72AFF0023A5E0FB7D96
:1012D0005C2B40F08B80FB681B6801337A689A4274
:1012E00040F28480FB681B685A1CFB681A60FB682C
:1012F0001B68BA6813441B78752B70DC5C2B04DA0E
:10130000222B72D02F2B70D069E05C3B01229A40D7
:10131000444B1340002B14BF01230023DBB2002BEE
:1013200063D102F00073002B14BF01230023DBB252
:10133000002B54D0FB681B685A1CFB681A60002302
:10134000FB6137E0FB681B68BA6813441B782F2BDE
:1013500006D9FB681B68BA6813441B78392B21D95E
:10136000FB681B68BA6813441B78402B06D9FB68DE
:101370001B68BA6813441B78462B13D9FB681B689B
:10138000BA6813441B78602B06D9FB681B68BA68DF
:1013900013441B78662B05D9BA69FB681A606FF095
:1013A00001033AE0FB681B685A1CFB681A60FB6982
:1013B0000133FB61FB69032B0BDCFB681B687A685C
:1013C0009A4206D9FB681B68BA6813441B78002B45
:1013D000B8D1FB681B685A1EFB681A6006E0BA6940
:1013E000FB681A606FF0010317E000BFFB681B6821
:1013F0005A1CFB681A60FB681B687A689A4207D916
:10140000FB681B68BA6813441B78002B7FF438AF65
:10141000BA69FB681A606FF0020318462037BD46B0
:1014200080BD00BF4104440180B58CB002AFF860BC
:10143000B9607A603B60FB685B683B6276E1FB68A1
:101440001B68BA6813441B78FB77FB7F7D2B6CD03D
:101450007D2B00F336817B2B30D07B2B00F3318149
:101460005D2B62D05D2B00F32C815B2B26D05B2B98
:1014700000F327813A2B00F0D6803A2B00F321812C
:101480002C2B00F0D7802C2B00F31B81202B11DCA0
:10149000092BC0F21681093B914A22FA03F303F0AB
:1014A0000103002B14BF01230023DBB2002B40F00B
:1014B0002D8106E1222B00F0928002E13B6A01338C
:1014C0003B623B68002B00F023813A6B3968F86877
:1014D000FFF7FEFDB861BB69002B02D14FF0FF336F
:1014E00053E1FB689B68B3F1FF3F0AD0FB689B6840
:1014F0001B013A6813447B617B69DB685A1C7B697A
:10150000DA60FB7F7B2B01D1012200E00222BB6964
:101510001A70FB681B681A46BB695A60FB685B68F7
:10152000013B1A46FB689A60FBE03B68002B00F029
:10153000F180FB7F7D2B01D1012300E00223BB77EB
:10154000FB685B68013B7B6224E07B6A1B013A68B5
:101550001344BB61BB695B68B3F1FF3F17D0BB6944
:101560009B68B3F1FF3F12D1BB691B78BA7F9A42E7
:1015700002D06FF0010308E1FB684FF0FF329A6080
:10158000FB681B6801331A46BB699A6005E07B6AF9
:10159000013B7B627B6A002BD7DA7B6AB3F1FF3FAA
:1015A00019D16FF00103F0E07B6A1B013A68134424
:1015B000BB61BB695B68B3F1FF3F09D0BB699B6846
:1015C000B3F1FF3F04D1FB687A6A9A6000BFA8E0DC
:1015D0007B6A013B7B627B6A002BE5DAA1E03B6B17
:1015E00000933B687A68B968F868FFF739FE38619C
:1015F0003B69002B01DA3B69C7E03B6A01333B6280
:10160000FB689B68B3F1FF3F00F086803B68002BCE
:1016100000F08280FB689B681B013A681344DA681B
:101620000132DA6078E0FB685B68013B1A46FB68D0
:101630009A6076E03B68002B70D0FB689B68B3F142
:10164000FF3F6BD0FB689B681B013A6813441B7813
:10165000022B63D0FB689B681B013A6813441B781C
:10166000012B5BD0FB685B68013B7B6225E07B6AFA
:101670001B013A6813441B78022B06D07B6A1B01BE
:101680003A6813441B78012B14D17B6A1B013A681A
:1016900013445B68B3F1FF3F0CD07B6A1B013A68CF
:1016A00013449B68B3F1FF3F04D1FB687A6A9A60E8
:1016B00000BF33E07B6A013B7B627B6A002BD6DA9A
:1016C0002CE03B6B00933B687A68B968F868FFF7D9
:1016D0003FFD38613B69002B04DA3B6955E000BFF0
:1016E000130080003B6A01333B62FB689B68B3F1E7
:1016F000FF3F15D03B68002B12D0FB689B681B0195
:101700003A681344DA680132DA6009E000BF08E0A1
:1017100000BF06E000BF04E000BF02E000BF00E041
:1017200000BFFB681B685A1CFB681A60FB681B68DB
:101730007A689A4207D9FB681B68BA6813441B7819
:10174000002B7FF47CAE3B68002B1DD0FB685B68F0
:10175000013B7B6215E07B6A1B013A6813445B68BE
:10176000B3F1FF3F0AD07B6A1B013A6813449B68C0
:10177000B3F1FF3F02D16FF0020306E07B6A013B49
:101780007B627B6A002BE6DA3B6A18462837BD4647
:1017900080BD00BF80B483B000AF78607B6800225A
:1017A0001A607B6800225A607B684FF0FF329A60B3
:1017B00000BF0C37BD4680BC7047000080B584B0C8
:1017C00000AF0023FB6001F0EDFC034603F51C5362
:1017D00010337B6001F010FC0346FB7201F0E2FC69
:1017E00002467B689A4201D9274B48E097F90B30B3
:1017F000002BEFD001F0D6FC034603F6B8337B6034
:1018000033E097F90B300A2B02D10023FB6018E07C
:1018100097F90B30002B14D0FB6840F2FE72934214
:1018200009D901F0D7FB4FF400620021164805F0FA
:10183000FFFD154B23E0FB685A1CFA60F97A124A47
:10184000D15401F0AFFC02467B689A4209D901F0FD
:10185000C1FB4FF4006200210B4805F0E9FD0A4B83
:101860000DE001F0C9FB0346FB7297F90B300D2B1D
:10187000C7D1054AFB68134400221A70024B184670
:101880001037BD4680BD00BFF001002080B584B098
:1018900000AF7860FFF792FFF8607868FEF758FCB9
:1018A00003461A467968F86805F0D7FD0346002B11
:1018B00009D13A21F86805F0C3FDB860BB6801336F
:1018C000BB60BB6800E0002318461037BD4680BDF2
:1018D00080B584B000AF786001F064FC034603F685
:1018E000B833BB60FFF76AFFF8600DE0FFF766FFF3
:1018F000F86001F057FC0246BB689A4201D9002308
:101900000FE0012001F058FC7868FEF721FC034647
:101910001A467968F86805F0A0FD0346002BE5D16A
:10192000012318461037BD4680BD000080B582B047
:1019300000AF1C4805F03EFC322001F03DFC01F0F8
:1019400049FB194805F036FC40F6B83001F034FC8C
:101950001648FFF7BDFF03467B607B68002B03D072
:10196000134801F079FB02E0124801F075FB01F029
:1019700031FB114805F01EFC1048FFF7A9FF034694
:101980007B607B68002B03D00D4801F065FB02E013
:101990000C4801F061FB01F01DFB00BF0837BD469C
:1019A00080BD00BF389500083C95000844950008AC
:1019B0004C950008649500087C9500088495000803
:1019C000889500089C95000880B582B000AF2B4830
:1019D00005F0F0FB2A48FFF77BFF03467B607B683E
:1019E000002B03D0274801F037FB02E0264801F026
:1019F00033FB01F0EFFA254805F0DCFB2048FFF748
:101A000067FF03467B607B68002B03D0204801F012
:101A100023FB02E01F4801F01FFB01F0DBFA1E4828
:101A200005F0C8FB1648FFF753FF03467B607B6851
:101A3000002B03D0194801F00FFB02E0184801F019
:101A40000BFB01F0C7FA174805F0B4FB0C48FFF791
:101A50003FFF03467B607B68002B03D0124801F0F8
:101A6000FBFA02E0114801F0F7FA322001F0A4FB82
:101A700001F0B0FA00BF0837BD4680BD38950008B8
:101A800084950008B0950008C4950008D895000812
:101A9000E8950008FC9500081096000820960008BC
:101AA0003496000848960008689600087C9600085E
:101AB00080B582B000AF2A4805F07CFB0A2001F017
:101AC0007BFB01F087FA274805F074FB322001F018
:101AD00073FB01F07FFA244805F06CFB0A2001F04B
:101AE0006BFB2248FFF7F4FE0346FB71FB79002BEA
:101AF00003D01F4801F0B0FA02E01E4801F0ACFA32
:101B00001D4805F057FB0A2001F056FB1B48FFF764
:101B1000DFFE0346FB71FB79002B03D0184801F070
:101B20009BFA02E0174801F097FA01F053FA1648C1
:101B300005F040FB0A2001F03FFB0C48FFF7C8FE10
:101B40000346FB71FB79002B03D0104801F084FAA7
:101B500002E00F4801F080FA00BF0837BD4680BDA3
:101B6000389500084C970008A09800088495000854
:101B7000CC980008E4980008FC9800082499000814
:101B8000349900084C99000864990008809900086D
:101B90009499000880B582B000AF0B48FFF776FE3D
:101BA00078607B68033308220849184605F055FC25
:101BB0000346002B01D0002301E07B680233184666
:101BC0000837BD4680BD00BFA8990008B499000839
:101BD00080B584B000AFF860B9607A60BB681B78EC
:101BE000042B1ED17868FEF7B3FA03461946BB688A
:101BF0009A68BB685B68D31A994212D1BB685B686C
:101C00001A46FB689818BB689A68BB685B68D31A69
:101C10001A46796805F021FC0346002B01D1002308
:101C200001E04FF0FF3318461037BD4680BD00007D
:101C300090B5ADF6340D02AF07F62803A3F62403E2
:101C4000186007F501631846FFF7A4FD07F628039F
:101C5000A3F624031868FEF77BFA044607F1100385
:101C600007F62802A2F6240107F5016080220092FF
:101C700022460968FFF7D8FBC7F82008D7F82038B4
:101C8000002B03DCDA4801F0E7F959E20123C7F839
:101C900024384EE207F11002D7F824381B01D1187E
:101CA00007F62803A3F62403D24A1868FFF790FF2B
:101CB0000346002B32D1D7F82438013307F6280227
:101CC000A2F618021B01134408331A68D7F8243807
:101CD000013307F62801A1F618011B010B44043358
:101CE0001B68D11AD7F82438013307F62802A2F668
:101CF00018021B01134404331B681A4607F6280315
:101D0000A3F624031B6813441A46BB4801F0A4F948
:101D1000D7F824380133C7F8243805E207F1100258
:101D2000D7F824381B01D11807F62803A3F624039B
:101D3000B24A1868FFF74CFF0346002B32D1D7F8A0
:101D40002438013307F62802A2F618021B011344B7
:101D500008331A68D7F82438013307F62801A1F6AA
:101D600018011B010B4404331B68D11AD7F824381F
:101D7000013307F62802A2F618021B0113440433AC
:101D80001B681A4607F62803A3F624031B681344AE
:101D90001A469B4801F060F9D7F824380133C7F898
:101DA0002438C1E107F11002D7F824381B01D118FB
:101DB00007F62803A3F62403924A1868FFF708FFE2
:101DC0000346002B32D1D7F82438013307F6280216
:101DD000A2F618021B01134408331A68D7F82438F6
:101DE000013307F62801A1F618011B010B44043347
:101DF0001B68D11AD7F82438013307F62802A2F657
:101E000018021B01134404331B681A4607F6280303
:101E1000A3F624031B6813441A467B4801F01CF9FF
:101E2000D7F824380133C7F824387DE107F11002D0
:101E3000D7F824381B01D11807F62803A3F624038A
:101E4000724A1868FFF7C4FE0346002B32D1D7F858
:101E50002438013307F62802A2F618021B011344A6
:101E600008331A68D7F82438013307F62801A1F699
:101E700018011B010B4404331B68D11AD7F824380E
:101E8000013307F62802A2F618021B01134404339B
:101E90001B681A4607F62803A3F624031B6813449D
:101EA0001A465B4801F0D8F8D7F824380133C7F850
:101EB000243839E107F11002D7F824381B01D11872
:101EC00007F62803A3F62403524A1868FFF780FE9A
:101ED0000346002B40F0A880D7F82438013307F6DA
:101EE0002802A2F618021B01134408331A68D7F817
:101EF0002438013307F62801A1F618011B010B4411
:101F000004331B68D11AD7F82438013307F62802A6
:101F1000A2F618021B01134404331B681A4607F685
:101F20002803A3F624031B6813441A463A4801F019
:101F300093F8D7F82438013307F62802A2F61802DE
:101F40001B01134404331B681A4607F62803A3F643
:101F500024031B68134404223049184605F07DFA17
:101F60000346002B02D100F05DFC3AE0D7F824389C
:101F7000013307F62802A2F618021B0113440433AA
:101F80001B681A4607F62803A3F624031B681344AC
:101F900002222349184605F060FA0346002B03D1BC
:101FA000012000F08FFB1CE0D7F82438013307F63E
:101FB0002802A2F618021B01134404331B681A46B8
:101FC00007F62803A3F624031B68134403221549CC
:101FD000184605F042FA0346002B02D1022000F019
:101FE00071FBD7F824380133C7F824389CE000BFD0
:101FF000C0990008D4990008DC990008EC99000801
:10200000F4990008089A0008109A0008209A00081D
:10201000289A0008389A0008409A0008509A000848
:10202000589A00085C9A000807F11002D7F8243883
:102030001B01D11807F62803A3F62403424A1868A7
:10204000FFF7C6FD0346002B6ED1D7F824380133C5
:1020500007F62802A2F618021B01134408331A6877
:10206000D7F82438013307F62801A1F618011B011F
:102070000B4404331B68D11AD7F82438013307F610
:102080002802A2F618021B01134404331B681A46E7
:1020900007F62803A3F624031B6813441A462B48AB
:1020A00000F0DAFFD7F82438013307F62802A2F649
:1020B00018021B01134404331B681A4607F6280351
:1020C000A3F624031B689818D7F82438013307F6C1
:1020D0002802A2F618021B01134408331A68D7F825
:1020E0002438013307F62801A1F618011B010B441F
:1020F00004331B68D31A1A4607F108030146184631
:1021000005F0BDF907F10803184604F047FA034645
:1021100087F81F3897F81F38184600F00DFBD7F8DE
:1021200024380133C7F82438D7F824380133C7F8E6
:102130002438D7F82428D7F820389A42FFF6AAADD9
:1021400007F62C07BD4690BD609A0008689A000803
:1021500090B5ADF5037D02AF454800F00FFF45484F
:1021600000F022FFFFF7E2FBFFF72EFCFFF7A0FCD9
:102170000021414800F08CFA01F014F802463F4B70
:102180001B689A424FD901F00DF8034603F57A73A4
:102190003A4A13603A4801F00BF90A21384801F035
:1021A000E1F9374801F0E4FA0346A7F8FE31344874
:1021B00001F0ACF9334B1B785A1CD1B2314A117083
:1021C0001C46B7F8FE31184600F0B0FD034618462D
:1021D000FEF72AF902460B46381DCDE900232246B8
:1021E000294904F0EFFF3B1D1846FDF7B1FF0346F8
:1021F0001946264804F076FF2548FFF769FB034699
:1022000087F8FD3197F8FD31002B0CD000BF00F0AE
:10221000F3FE03463E2BFAD13B1D184604F062FF45
:102220001C4800F019FF00F0BDFF02461A4B1B6866
:102230009A42A1D900F0B6FF03460A33164A13604A
:10224000FFF7A8FCC7F8F801D7F8F8311B78002B86
:1022500092D0D7F8F8310E331946104800F0FCFE42
:10226000D7F8F8310E331846FFF7E2FC84E700BFD9
:10227000740A0020BC0A00202C0A0020F00900206B
:10228000FC090020F4090020789A0008B89A000898
:1022900084950008DC9A0008F8090020449700089B
:1022A00080B500AF00F026FF00F00EF800F096F9C0
:1022B00000F062F800F03EF900F066F900F09AF8DC
:1022C000FFF746FF00BFFDE780B594B000AF07F110
:1022D000280328220021184605F0AAF807F1140364
:1022E00000221A605A609A60DA601A613B1D00226F
:1022F0001A605A609A60DA600223BB620123BB63F2
:102300001023FB6302237B640023BB644FF4601340
:10231000FB6407F12803184601F026FF0346002B53
:1023200001D000F0AFF90F237B610223BB610023D2
:10233000FB614FF480633B6200237B6207F114036F
:102340000221184602F092F90346002B01D000F05A
:1023500099F902237B604FF40043FB603B1D184654
:1023600002F012FB0346002B01D000F08BF900BFF6
:102370005037BD4680BD000080B584B000AF3B1D26
:1023800000221A605A609A60184B194A1A60174B5B
:1023900000229A60154B01221A73144B00221A7501
:1023A000124B4FF46022DA61104B00225A600F4B3F
:1023B00001221A610D4800F023FF0346002B01D0D3
:1023C00000F060F900237B600123BB600023FB6009
:1023D0003B1D1946054801F0D7F90346002B01D0F3
:1023E00000F050F900BF1037BD4680BDFC09002049
:1023F0000024014080B596B000AF07F148030022E9
:102400001A605A609A60DA6007F1400300221A608D
:102410005A6007F1240300221A605A609A60DA6059
:102420001A615A619A613B1D20220021184604F06E
:10243000FFFF3E4B3E4A1A603C4B3F225A603B4BEB
:1024400000229A60394B40F2E732DA60374B0022C3
:102450001A61364B00225A61344B00229A6133488C
:1024600002F0FEFB0346002B01D000F00BF94FF405
:102470008053BB6407F1480319462C4802F0FCFD69
:102480000346002B01D000F0FDF8284802F037FC8D
:102490000346002B01D000F0F5F800233B64002335
:1024A0007B6407F140031946204803F05DF90346B9
:1024B000002B01D000F0E6F860237B620023BB62B2
:1024C0000023FB6200233B6300237B630023BB6389
:1024D0000023FB6307F1240300221946134802F08E
:1024E00009FD0346002B01D000F0CCF800237B60EF
:1024F0000023BB600023FB6000233B6100237B6162
:102500004FF40053BB6100233B623B1D1946074853
:1025100003F088F90346002B01D000F0B3F803481C
:1025200000F050FA00BF5837BD4680BD2C0A00208D
:10253000002C014080B500AF114B124A1A60104BBD
:102540004FF4E1325A600E4B00229A600C4B00228D
:10255000DA600B4B00221A61094B0C225A61084BBE
:1025600000229A61064B0022DA61054803F0ABF9BC
:102570000346002B01D000F085F800BF80BD00BFEE
:10258000740A00200038014080B500AF114B124A98
:102590001A60104B4FF4E1325A600E4B00229A60E1
:1025A0000C4B0022DA600B4B00221A61094B0C2203
:1025B0005A61084B00229A61064B0022DA610548F5
:1025C00003F081F90346002B01D000F05BF800BF57
:1025D00080BD00BFBC0A00200044004080B586B02A
:1025E00000AF07F1080300221A605A609A60DA60AF
:1025F000214B9B69204A43F0040393611E4B9B6966
:1026000003F004037B607B681B4B9B691A4A43F011
:1026100008039361184B9B6903F008033B603B6818
:1026200000222021154801F087FD00224FF482612D
:10263000134801F081FD2023BB600123FB600023D0
:102640003B6102237B6107F1080319460B4801F047
:10265000EFFB4FF48263BB600123FB6000233B610F
:1026600002237B6107F108031946054801F0E0FBEE
:1026700000BF1837BD4680BD001002400008014071
:10268000000C014080B400AF72B600BF00BFFDE790
:1026900080B582B000AF78603960084A7B6813600B
:1026A000074A3B681360054B1B683968184602F0FF
:1026B0007FFB00BF0837BD4680BD00BF040B002074
:1026C000080B002080B582B000AF0346FB71FB7998
:1026D000022B1ED0022B28DC002B02D0012B0CD0A9
:1026E00023E000224FF48061124801F025FD002212
:1026F0001021104801F020FD17E001224FF4806105
:102700000C4801F019FD002210210A4801F014FDC7
:102710000BE000224FF48061064801F00DFD01221C
:102720001021044801F008FD00BF00BF0837BD4676
:1027300080BD00BF000C014080B483B000AF0346F1
:10274000FB71354B1B680C2B5CD801A252F823F0AF
:102750008527000805280008052800080528000826
:10276000A5270008052800080528000805280008F6
:10277000C5270008052800080528000805280008C6
:10278000E5270008254B1B681B68DB6AFA7903FB09
:1027900002F2224B1B681B682149A1FB021252095D
:1027A0005A632FE01D4B1B681B68DB6AFA7903FB39
:1027B00002F21A4B1B681B681949A1FB021252094D
:1027C0009A631FE0154B1B681B68DB6AFA7903FBF1
:1027D00002F2124B1B681B681149A1FB021252093D
:1027E000DA630FE00D4B1B681B68DB6AFA7903FBA9
:1027F00002F20A4B1B681B680949A1FB021252092D
:102800001A6400BF054B1B681B6800225A6200BF98
:102810000C37BD4680BC7047080B0020040B00201D
:102820001F85EB5180B400AF1E4B1B680C2B35D8B5
:1028300001A252F823F000BF6D2800089D2800086F
:102840009D2800089D280008792800089D28000878
:102850009D2800089D280008852800089D2800085C
:102860009D2800089D280008912800080E4B1B6831
:102870001B6800225A6311E00B4B1B681B68002287
:102880009A630BE0084B1B681B680022DA6305E0C3
:10289000054B1B681B6800221A6400BF00BFBD46C1
:1028A00080BC7047080B0020040B002080B485B06A
:1028B00000AF154B9B69144A43F001039361124B1F
:1028C0009B6903F00103BB60BB680F4BDB690E4AD9
:1028D00043F08053D3610C4BDB6903F080537B6082
:1028E0007B680A4B5B68FB60FB6823F0E063FB607E
:1028F000FB6843F00073FB60044AFB68536000BF51
:102900001437BD4680BC70470010024000000140F3
:1029100080B588B000AF786007F1100300221A601C
:102920005A609A60DA607B681B68144A934221D12E
:10293000134B9B69124A43F400739361104B9B69DC
:1029400003F40073FB60FB680D4B9B690C4A43F07A
:10295000040393610A4B9B6903F00403BB60BB68EB
:1029600001233B6103237B6107F1100319460548EE
:1029700001F05EFA00BF2037BD4680BD0024014053
:10298000001002400008014080B485B000AF7860BC
:102990007B681B68094A93420BD1094B9B69084A23
:1029A00043F400639361064B9B6903F40063FB608F
:1029B000FB6800BF1437BD4680BC7047002C014047
:1029C0000010024080B588B000AF786007F11003B6
:1029D00000221A605A609A60DA607B681B68104AAD
:1029E000934218D10F4B9B690E4A43F00403936145
:1029F0000C4B9B6903F00403FB60FB684FF480738E
:102A00003B6102237B610223FB6107F1100319463E
:102A1000054801F00DFA00BF2037BD4680BD00BF5C
:102A2000002C0140001002400008014080B58AB02F
:102A300000AF786007F1180300221A605A609A60AC
:102A4000DA607B681B683F4A93423AD13E4B9B69F0
:102A50003D4A43F4804393613B4B9B6903F48043BD
:102A60007B617B69384B9B69374A43F00403936170
:102A7000354B9B6903F004033B613B694FF40073E2
:102A8000BB610223FB6103237B6207F11803194634
:102A90002E4801F0CDF94FF48063BB610023FB6148
:102AA00000233B6207F118031946284801F0C0F9DA
:102AB00000220021252001F0D2F8252001F0EBF8BA
:102AC0003CE07B681B68224A934237D11E4BDB698E
:102AD0001D4A43F40033D3611B4BDB6903F400331D
:102AE000FB60FB68184B9B69174A43F00403936132
:102AF000154B9B6903F00403BB60BB680423BB61F7
:102B00000223FB6103237B6207F1180319460F4878
:102B100001F08EF90823BB610023FB6100233B62B7
:102B200007F118031946094801F082F90022002133
:102B3000262001F094F8262001F0ADF800BF2837D8
:102B4000BD4680BD00380140001002400008014031
:102B50000044004080B400AF00BFFDE780B400AF88
:102B600000BFFDE780B400AF00BFFDE780B400AF59
:102B700000BFFDE780B400AF00BFFDE780B400AF49
:102B800000BFBD4680BC704780B400AF00BFBD46EB
:102B900080BC704780B400AF00BFBD4680BC7047AA
:102BA00080B500AF00F0ECFA00BF80BD80B500AF8B
:102BB000024802F089FF00BF80BD00BF740A0020F8
:102BC00080B500AF024802F07FFF00BF80BD00BFAC
:102BD000BC0A002080B400AF01231846BD4680BC6B
:102BE000704780B582B000AF7860396004F0A4FC13
:102BF000034616221A604FF0FF3318460837BD46C9
:102C000080BD80B582B000AF78604FF0FF3178684A
:102C1000FFF7E7FF00BFFDE780B586B000AFF860C3
:102C2000B9607A6000237B610AE0AFF3008001465F
:102C3000BB685A1CBA60CAB21A707B6901337B61E7
:102C40007A697B689A42F0DB7B6818461837BD4684
:102C500080BD80B483B000AF78604FF0FF3318467A
:102C60000C37BD4680BC704780B483B000AF78603D
:102C700039603B684FF400525A60002318460C3705
:102C8000BD4680BC704780B483B000AF786001233C
:102C900018460C37BD4680BC704780B485B000AF85
:102CA000F860B9607A60002318461437BD4680BCCE
:102CB0007047000080B586B000AF7860144A154BAD
:102CC000D31A7B617B693B61134B1B68002B02D1DC
:102CD000114B124A1A60104B1A687B6813443A6908
:102CE0009A4207D204F028FC03460C221A604FF0E7
:102CF000FF3309E0084B1B68FB60074B1A687B68D1
:102D00001344054A1360FB6818461837BD4680BD5A
:102D100000500020000400000C0B0020400D00209B
:102D200080B400AF00BFBD4680BC7047B0B58AB06C
:102D300000AF0346FB804C4BFB614C4BBB61FB88F7
:102D40001846FDF7A7FF0346F9691846FDF7FAFF95
:102D5000034647491846FEF7A9F803467B61B86960
:102D6000FDF762FB04460D467969F869FEF79EF8A7
:102D700003461846FDF758FB4FF000023D4BFDF7A8
:102D8000F3F902460B4620462946FDF7CFFC0246E2
:102D90000B4610461946FDF777FE03463B6172234A
:102DA000FB6000233B6255E0334A3B6A52F8233014
:102DB00019463869FEF76EF90346002B47D03B6A87
:102DC00001332D4A52F8233019463869FEF776F957
:102DD0000346002B3BD03B6A0133284A52F823209C
:102DE00026493B6A51F8233019461046FDF7A0FEEC
:102DF00003461C463B6A01331F4A52F823201E49F2
:102E00003B6A51F8233019461046FDF791FE034600
:102E100019462046FEF74AF80346BB60174A3B6A4C
:102E200052F82340144A3B6A52F823301946386955
:102E3000FDF77EFE0346B9681846FDF783FF03469B
:102E400019462046FDF776FE03467B6207E03B6AA3
:102E500001333B62FB68013B3A6A9A42A4DB7B6A1E
:102E600018462837BD46B0BD3333534000401C469A
:102E700000F07F450000F03FC89C0008009B000860
:102E800080B584B000AFF860B9607A60064B18680E
:102E90007B689AB27B68B96802F065FD7B6818466A
:102EA0001037BD4680BD00BF100B002080B582B03A
:102EB00000AF78607B681A68274B1B681B689A42D2
:102EC0001FD1264B1B885A1C91B2244A11801A46E6
:102ED000234B1978234B9954204B1B88224AA2FB81
:102EE00003125209642101FB02F29B1A9AB21B4B96
:102EF0001A80194B1B6801221949184602F0BEFDC1
:102F000025E07B681A68194B1B681B689A421ED122
:102F1000174B1B885A1C91B2154A11801A46154B43
:102F20001978154B9954124B1B880F4AA2FB0312B8
:102F30005209642101FB02F29B1A9AB20C4B1A80CF
:102F40000A4B1B6801220B49184602F097FD00BF8F
:102F50000837BD4680BD00BF100B00207C0B002051
:102F6000800B0020180B00201F85EB51140B002054
:102F7000E80B0020EA0B0020840B002080B582B013
:102F800000AF7860064A7B681360054B1B6801221E
:102F90000449184602F072FD00BF0837BD4680BDE7
:102FA000100B0020800B002080B582B000AF78604D
:102FB000064A7B681360054B1B68012204491846CA
:102FC00002F05CFD00BF0837BD4680BD140B002039
:102FD000EA0B002080B400AF054B00221A80044B9E
:102FE0001A88044B1A8000BFBD4680BC704700BFE2
:102FF0007E0B00207C0B002080B483B000AF124B0E
:103000001A88124B1B889A4201D1002317E00F4BFC
:103010001B885A1C91B20D4A11801A460C4B9B5CBE
:10302000FB710A4B1B880B4AA2FB03125209642155
:1030300001FB02F29B1A9AB2044B1A80FB791846E4
:103040000C37BD4680BC70477C0B00207E0B0020F7
:10305000180B00201F85EB510FB4B0B59AB000AF2C
:1030600007F17C033B60381D3B68BA6F642104F0B4
:103070003DF90C4B1C683B1D1846FDF769F80346EB
:103080009DB23B1D1846FDF763F80346391D2A46DD
:10309000204602F068FC00BF6837BD46BDE8B0407E
:1030A00004B07047140B0020FFF73AFE0B480C49A0
:1030B0000C4A002302E0D458C4500433C4188C4294
:1030C000F9D3094A094C002301E013600432A242FB
:1030D000FBD304F037FAFFF7E3F870470000002055
:1030E000D401002038A20008D40100203C0D0020AB
:1030F000FEE7000080B500AF084B1B68074A43F0AD
:1031000010031360032000F09FFD0F2000F008F86B
:10311000FFF7CCFB0023184680BD00BF0020024013
:1031200080B582B000AF7860124B1A68124B1B78E2
:1031300019464FF47A73B3FBF1F3B2FBF3F318467D
:1031400000F0B7FD0346002B01D001230EE07B68A1
:103150000F2B0AD8002279684FF0FF3000F07FFD76
:10316000064A7B681360002300E0012318460837F5
:10317000BD4680BD000000200800002004000020A3
:1031800080B400AF054B1B781A46054B1B681344EF
:10319000034A136000BFBD4680BC70470800002092
:1031A000EC0B002080B400AF024B1B681846BD46F4
:1031B00080BC7047EC0B002080B584B000AF786015
:1031C000FFF7F0FFB8607B68FB60FB68B3F1FF3F7F
:1031D00005D00A4B1B781A46FB681344FB6000BFFE
:1031E000FFF7E0FF0246BB68D31AFA689A42F7D8A5
:1031F00000BF00BF1037BD4680BD00BF08000020E3
:1032000080B586B000AF78600023FB7500233B617A
:103210000023BB600023FB607B68002B01D10123EE
:10322000BEE07B689B68002B7B689B6A002B09D102
:103230007B680022DA627B68002283F824207868A9
:10324000FFF766FB786800F0F1FB0346FB757B68CF
:103250009B6A03F01003002B40F09980FB7D002B4C
:1032600040F095807B689B6A23F4885323F0020327
:1032700043F002027B689A627B685A687B68DB696C
:103280001A437B681B7B5B001343BA681343BB6024
:103290007B689B68B3F5807F03D07B689B68012BBC
:1032A00002D14FF4807300E000233A6913433B617D
:1032B0007B681B7D012B19D17B681B7B002B09D1FF
:1032C0007B689B69013B5A033B69134343F40063EA
:1032D0003B610BE07B689B6A43F020027B689A624B
:1032E0007B68DB6A43F001027B68DA627B681B68FB
:1032F0005B6823F469417B681B683A690A435A603A
:103300007B681B689A68284B13407A681268B96812
:103310000B4393607B689B68B3F5807F03D07B6829
:103320009B68012B04D17B681B69013B1B05FB607B
:103330007B681B68DB6A23F470017B681B68FA6892
:103340000A43DA627B681B689A68184B1340BA68B4
:103350009A420BD17B680022DA627B689B6A23F079
:10336000030343F001027B689A6218E07B689B6A62
:1033700023F0120343F010027B689A627B68DB6AD9
:1033800043F001027B68DA620123FB7507E07B688A
:103390009B6A43F010027B689A620123FB75FB7DF8
:1033A00018461837BD4680BDFDF7E1FFFE0E1FFF32
:1033B00080B584B000AF78600023FB737B6893F81E
:1033C0002430012B01D1022398E07B68012283F88D
:1033D0002420786800F0D0FA0346FB73FB7B002BB7
:1033E00040F087807B689B6A23F4407323F00103DD
:1033F00043F480727B689A627B681B68414A9342FF
:1034000005D1414B5B6803F47023002B15D17B6819
:103410009B6A23F480127B689A627B681B685B68F6
:1034200003F48063002B26D07B689B6A23F440530F
:1034300043F480527B689A621DE07B689B6A43F488
:1034400080127B689A627B681B682F4A934204D083
:103450007B681B682B4A93420DD12B4B5B6803F4AE
:103460008063002B07D07B689B6A23F4405343F4AE
:1034700080527B689A627B689B6A03F48053002BBE
:1034800006D07B68DB6A23F006027B68DA6202E022
:103490007B680022DA627B68002283F824207B6844
:1034A0001B686FF002021A607B681B689B6803F45C
:1034B0006023B3F5602F13D17B681B68114A9342D8
:1034C00005D1114B5B6803F47023002B08D17B6896
:1034D0001B689A687B681B6842F4A0029A600CE043
:1034E0007B681B689A687B681B6842F480129A604C
:1034F00003E07B68002283F82420FB7B184610370A
:10350000BD4680BD002801400024014080B584B044
:1035100000AF78600023FB737B6893F82430012BA5
:1035200001D102231AE07B68012283F82420786805
:1035300000F07CFA0346FB73FB7B002B09D17B6810
:103540009B6A23F4885323F0010343F001027B6854
:103550009A627B68002283F82420FB7B1846103790
:10356000BD4680BD90B587B000AF7860396000235C
:103570007B610023FB6000233B61FFF713FE786152
:103580007B681B689B6803F48073002B0BD07B68FF
:103590009B6A43F020027B689A627B68002283F872
:1035A00024200123D3E07B681B685B6803F48073ED
:1035B000002B31D17B681B68DB6A03F47003002B9E
:1035C0002AD121E03B68B3F1FF3F1DD03B68002BBF
:1035D00007D0FFF7E7FD02467B69D31A3A689A42A3
:1035E00012D27B681B681B6803F00203002B0BD10F
:1035F0007B689B6A43F004027B689A627B680022C6
:1036000083F824200323A2E07B681B681B6803F077
:103610000203002BD6D070E04F4B1C68022001F053
:1036200069FA0346B4FBF3F27B681B6819694B4BDC
:103630000B40002B18D17B681B68D968484B0B40A6
:10364000002B11D17B681B681969464B0B40002B7E
:1036500008D17B681B68D968434B0B40002B01D114
:10366000142320E029231EE07B681B6819693D4B69
:103670000B40002B06D17B681B68D9683A4B0B4086
:10368000002B0DD07B681B681969384B0B40002B51
:1036900008D17B681B68D968344B0B40002B01D1E3
:1036A000542300E0FC2302FB03F33B6121E03B6871
:1036B000B3F1FF3F1AD03B68002B07D0FFF772FD34
:1036C00002467B69D31A3A689A420FD2FB683A697C
:1036D0009A420BD97B689B6A43F004027B689A622A
:1036E0007B68002283F82420032330E0FB68013349
:1036F000FB60FB683A699A42D9D87B681B686FF017
:1037000012021A607B689B6A43F400727B689A62BB
:103710007B681B689B6803F46023B3F5602F15D1A9
:103720007B681B7B002B11D17B689B6A23F4807222
:103730007B689A627B689B6A03F48053002B05D1F7
:103740007B689B6A43F001027B689A6200231846FB
:103750001C37BD4690BD00BF0000002024499224C4
:10376000244992009224491292244900499224004B
:1037700080B483B000AF78607B681B68DB6C184650
:103780000C37BD4680BC704780B485B000AF786010
:1037900039600023FB730023BB607B6893F82430FF
:1037A000012B01D10223DCE07B68012283F8242075
:1037B0003B685B68062B1CD87B681B68596B3B68B1
:1037C0005A6813469B001344053B1F2202FA03F379
:1037D000DB4319403B6818683B685A6813469B00F6
:1037E0001344053B00FA03F27B681B680A435A63E3
:1037F0003CE03B685B680C2B1CD87B681B68196B32
:103800003B685A6813469B001344233B1F2202FA6D
:1038100003F3DB4319403B6818683B685A6813465A
:103820009B001344233B00FA03F27B681B680A43A6
:103830001A631BE07B681B68D96A3B685A681346A9
:103840009B001344413B1F2202FA03F3DB43194060
:103850003B6818683B685A6813469B001344413B19
:1038600000FA03F27B681B680A43DA623B681B6854
:10387000092B1CD97B681B68D9683B681A681346FA
:103880005B0013441E3B072202FA03F3DB4319409B
:103890003B6898683B681A6813465B0013441E3BFC
:1038A00000FA03F27B681B680A43DA6019E07B6860
:1038B0001B6819693B681A6813465B0013440722AA
:1038C00002FA03F3DB4319403B6898683B681A68C7
:1038D00013465B00134400FA03F27B681B680A433B
:1038E0001A613B681B68102B03D03B681B68112BC7
:1038F00032D17B681B681D4A934225D17B681B68C7
:103900009B6803F40003002B26D17B681B689A6830
:103910007B681B6842F400029A603B681B68102BAE
:103920001AD1134B1B68134AA2FB03239A0C1346AC
:103930009B0013445B00BB6002E0BB68013BBB60C3
:10394000BB68002BF9D107E07B689B6A43F020023B
:103950007B689A620123FB737B68002283F8242032
:10396000FB7B18461437BD4680BC704700240140DD
:103970000000002083DE1B4380B584B000AF786078
:103980000023FB600023BB607B681B689B6803F01F
:103990000103012B40D07B681B689A687B681B6819
:1039A00042F001029A601F4B1B681F4AA2FB0323CF
:1039B0009B0CBB6002E0BB68013BBB60BB68002B9B
:1039C000F9D1FFF7EFFBF8601FE0FFF7EBFB0246D2
:1039D000FB68D31A022B18D97B681B689B6803F01D
:1039E0000103012B11D07B689B6A43F010027B68B6
:1039F0009A627B68DB6A43F001027B68DA627B686B
:103A0000002283F82420012307E07B681B689B6861
:103A100003F00103012BD8D1002318461037BD460F
:103A200080BD00BF0000002083DE1B4380B584B052
:103A300000AF78600023FB607B681B689B6803F025
:103A40000103012B2ED17B681B689A687B681B6879
:103A500022F001029A60FFF7A5FBF8601BE0FFF778
:103A6000A1FB0246FB68D31A022B14D97B681B68A2
:103A70009B6803F00103012B0DD17B689B6A43F027
:103A800010027B689A627B68DB6A43F001027B6804
:103A9000DA62012307E07B681B689B6803F001037F
:103AA000012BDCD0002318461037BD4680BD000036
:103AB00080B485B000AF78607B6803F00703FB60DB
:103AC0000C4BDB68BB60BA684FF6FF031340BB606A
:103AD000FB681A02BB68134343F0BF6343F400332F
:103AE000BB60044ABB68D36000BF1437BD4680BCCE
:103AF000704700BF00ED00E080B400AF044BDB680E
:103B00001B0A03F007031846BD4680BC704700BF80
:103B100000ED00E080B483B000AF0346FB7197F97D
:103B20000730002B0BDBFB7903F01F02064997F9E6
:103B300007305B09012000FA02F241F8232000BFA0
:103B40000C37BD4680BC704700E100E080B483B014
:103B500000AF03463960FB7197F90730002B0ADB91
:103B60003B68DAB20C4997F907301201D2B20B4424
:103B700083F800230AE03B68DAB20849FB7903F0D6
:103B80000F03043B1201D2B20B441A7600BF0C376C
:103B9000BD4680BC704700BF00E100E000ED00E0E2
:103BA00080B489B000AFF860B9607A60FB6803F058
:103BB0000703FB61FB69C3F10703042B28BF042340
:103BC000BB61FB690433062B02D9FB69033B00E0B0
:103BD00000237B614FF0FF32BB6902FA03F3DA4343
:103BE000BB681A407B699A404FF0FF317B6901FA4C
:103BF00003F3D9437B680B40134318462437BD4673
:103C000080BC704780B582B000AF78607B68013BB4
:103C1000B3F1807F01D301230FE00A4A7B68013BA7
:103C200053600F214FF0FF30FFF790FF054B00224C
:103C30009A60044B07221A60002318460837BD46D5
:103C400080BD00BF10E000E080B582B000AF7860BA
:103C50007868FFF72DFF00BF0837BD4680BD80B5EF
:103C600086B000AF0346B9607A60FB7300237B61C6
:103C7000FFF742FF78617A68B9687869FFF790FFCB
:103C8000024697F90F3011461846FFF75FFF00BF55
:103C90001837BD4680BD80B582B000AF0346FB71CA
:103CA00097F907301846FFF735FF00BF0837BD46C4
:103CB00080BD80B582B000AF78607868FFF7A2FF62
:103CC000034618460837BD4680BD80B485B000AFB6
:103CD00078600023FB737B6893F82130DBB2022B02
:103CE00008D07B6804229A637B68002283F8202036
:103CF000012320E07B681B681A687B681B6822F040
:103D00000E021A607B681B681A687B681B6822F0C9
:103D100001021A607B681A6C7B68DB6B012101FA77
:103D200002F25A607B68012283F821207B6800221E
:103D300083F82020FB7B18461437BD4680BC7047B3
:103D400080B584B000AF78600023FB737B6893F884
:103D50002130DBB2022B05D07B6804229A63012359
:103D6000FB7351E07B681B681A687B681B6822F054
:103D70000E021A607B681B681A687B681B6822F059
:103D800001021A607B681B68224A934229D07B6833
:103D90001B68214A934222D07B681B681F4A9342CA
:103DA0001AD07B681B681E4A934212D07B681B683E
:103DB0001C4A93420AD07B681B681B4A934202D17B
:103DC0004FF480130EE04FF080730BE04FF480331C
:103DD00008E04FF4805305E04FF4807302E01023B5
:103DE00000E00123114A53607B68012283F82120FF
:103DF0007B68002283F820207B685B6B002B03D05C
:103E00007B685B6B78689847FB7B18461037BD462C
:103E100080BD00BF080002401C000240300002408C
:103E200044000240580002406C0002400000024082
:103E300080B48BB000AF7860396000237B620023D0
:103E40003B6269E101227B6A02FA03F3FB613B6892
:103E50001B68FA691340BB61BA69FB699A4240F07A
:103E600058813B685B689A4A93425ED0984A934275
:103E700075D8984A934258D0964A93426FD8964A3A
:103E8000934252D0944A934269D8944A93424CD078
:103E9000924A934263D8924A934246D0904A9342C0
:103EA0005DD8122B2AD8122B59D801A252F823F030
:103EB0002B3F0008053F0008173F0008593F000846
:103EC0005F3F00085F3F00085F3F00085F3F00085A
:103ED0005F3F00085F3F00085F3F00085F3F00084A
:103EE0005F3F00085F3F00085F3F00085F3F00083A
:103EF0005F3F00080D3F0008213F0008794A9342C8
:103F000013D02CE03B68DB683B6229E03B68DB6850
:103F100004333B6224E03B68DB6808333B621FE00C
:103F20003B68DB680C333B621AE03B689B68002B04
:103F300002D104233B6213E03B689B68012B05D14F
:103F400008233B627B68FA691A6109E008233B6237
:103F50007B68FA695A6103E000233B6200E000BF1E
:103F6000BB69FF2B01D87B6801E07B6804337B6170
:103F7000BB69FF2B02D87B6A9B0002E07B6A083B8F
:103F80009B003B617B691A680F213B6901FA03F3CF
:103F9000DB431A40396A3B6901FA03F31A437B6930
:103FA0001A603B685B6803F08053002B00F0B1801F
:103FB0004D4B9B694C4A43F0010393614A4B9B690B
:103FC00003F00103BB60BB68484A7B6A9B0802336D
:103FD00052F82330FB607B6A03F003039B000F223F
:103FE00002FA03F3DB43FA681340FB607B68404A44
:103FF000934213D07B683F4A93420DD07B683E4A80
:10400000934207D07B683D4A934201D1032306E0E7
:10401000042304E0022302E0012300E000237A6A83
:1040200002F0030292009340FA681343FB602F49A9
:104030007B6A9B080233FA6841F823203B685B687F
:1040400003F48013002B06D02D4B9A682C49BB69D2
:1040500013438B6006E02A4B9A68BB69DB4328490F
:1040600013408B603B685B6803F40013002B06D0A1
:10407000234BDA682249BB691343CB6006E0204B2F
:10408000DA68BB69DB431E491340CB603B685B6861
:1040900003F40033002B06D0194B5A681849BB694A
:1040A00013434B6006E0164B5A68BB69DB43144967
:1040B00013404B603B685B6803F48033002B21D0D6
:1040C0000F4B1A680E49BB6913430B6021E000BF18
:1040D00000003210000031100000221000002110FA
:1040E00000001210000011100010024000000140FA
:1040F00000080140000C0140001001400014014084
:10410000000401400B4B1A68BB69DB4309491340AB
:104110000B607B6A01337B623B681A687B6A22FA18
:1041200003F3002B7FF48EAE00BF00BF2C37BD46DB
:1041300080BC70470004014080B483B000AF786059
:104140000B467B8013467B707B78002B03D07A88EC
:104150007B681A6103E07B881A047B681A6100BFE0
:104160000C37BD4680BC704780B586B000AF786024
:104170007B68002B01D1012372E27B681B6803F08E
:104180000103002B00F08780924B5B6803F00C0367
:10419000042B0CD08F4B5B6803F00C03082B12D15F
:1041A0008C4B5B6803F48033B3F5803F0BD1894BB4
:1041B0001B6803F40033002B6CD07B685B68002B1A
:1041C00068D101234CE27B685B68B3F5803F06D180
:1041D000804B1B687F4A43F4803313602EE07B687A
:1041E0005B68002B0CD17B4B1B687A4A23F480332D
:1041F0001360784B1B68774A23F4802313601DE01B
:104200007B685B68B3F5A02F0CD1724B1B68714AB9
:1042100043F4802313606F4B1B686E4A43F4803372
:1042200013600BE06B4B1B686A4A23F48033136006
:10423000684B1B68674A23F4802313607B685B68C4
:10424000002B13D0FEF7AEFF386108E0FEF7AAFF9F
:1042500002463B69D31A642B01D9032300E25D4B6C
:104260001B6803F40033002BF0D014E0FEF79AFF34
:10427000386108E0FEF796FF02463B69D31A642BCB
:1042800001D90323ECE1534B1B6803F40033002BEB
:10429000F0D100E000BF7B681B6803F00203002B35
:1042A00063D04C4B5B6803F00C03002B0BD0494BE5
:1042B0005B6803F00C03082B1CD1464B5B6803F4CE
:1042C0008033002B16D1434B1B6803F00203002BF5
:1042D00005D07B681B69012B01D00123C0E13D4B58
:1042E0001B6823F0F8027B685B69DB0039491343E4
:1042F0000B603AE07B681B69002B20D0364B012213
:104300001A60FEF74FFF386108E0FEF74BFF0246E8
:104310003B69D31A022B01D90323A1E12D4B1B6862
:1043200003F00203002BF0D02A4B1B6823F0F802A5
:104330007B685B69DB00274913430B6015E0264B64
:1043400000221A60FEF72EFF386108E0FEF72AFF10
:1043500002463B69D31A022B01D9032380E11D4B8E
:104360001B6803F00203002BF0D17B681B6803F08D
:104370000803002B3AD07B689B69002B19D0174BA0
:1043800001221A60FEF70EFF386108E0FEF70AFF0F
:1043900002463B69D31A022B01D9032360E10D4B7E
:1043A0005B6A03F00203002BF0D0012000F0CEFA8C
:1043B0001CE00A4B00221A60FEF7F4FE38610FE0A1
:1043C000FEF7F0FE02463B69D31A022B08D90323FD
:1043D00046E100BF00100240000042428004424219
:1043E000924B5B6A03F00203002BE9D17B681B68E8
:1043F00003F00403002B00F0A6800023FB758B4B19
:10440000DB6903F08053002B0DD1884BDB69874AB1
:1044100043F08053D361854BDB6903F08053BB606D
:10442000BB680123FB75824B1B6803F48073002B70
:1044300018D17F4B1B687E4A43F480731360FEF7EC
:10444000B1FE386108E0FEF7ADFE02463B69D31AC3
:10445000642B01D9032303E1754B1B6803F48073BC
:10446000002BF0D07B68DB68012B06D16F4B1B6AF9
:104470006E4A43F0010313622DE07B68DB68002B7A
:104480000CD16A4B1B6A694A23F001031362674B24
:104490001B6A664A23F0040313621CE07B68DB6836
:1044A000052B0CD1614B1B6A604A43F00403136275
:1044B0005E4B1B6A5D4A43F0010313620BE05B4BEA
:1044C0001B6A5A4A23F001031362584B1B6A574A6E
:1044D00023F0040313627B68DB68002B15D0FEF722
:1044E00061FE38610AE0FEF75DFE02463B69D31AC1
:1044F00041F28832934201D90323B1E04B4B1B6A4E
:1045000003F00203002BEED014E0FEF74BFE3861FF
:104510000AE0FEF747FE02463B69D31A41F28832B1
:10452000934201D903239BE0404B1B6A03F0020333
:10453000002BEED1FB7D012B05D13C4BDB693B4AC7
:1045400023F08053D3617B68DB69002B00F0878008
:10455000364B5B6803F00C03082B61D07B68DB698A
:10456000022B46D1334B00221A60FEF71BFE386146
:1045700008E0FEF717FE02463B69D31A022B01D969
:1045800003236DE0294B1B6803F00073002BF0D16F
:104590007B681B6AB3F5803F08D1244B5B6823F42A
:1045A00000327B689B68214913434B601F4B5B685B
:1045B00023F474127B68196A7B685B6A0B431B499E
:1045C00013434B601B4B01221A60FEF7EBFD386171
:1045D00008E0FEF7E7FD02463B69D31A022B01D93A
:1045E00003233DE0114B1B6803F00073002BF0D058
:1045F00035E0104B00221A60FEF7D4FD386108E068
:10460000FEF7D0FD02463B69D31A022B01D90323E2
:1046100026E0064B1B6803F00073002BF0D11EE070
:104620007B68DB69012B07D1012319E000100240F0
:1046300000700040600042420B4B5B68FB60FB680F
:1046400003F480327B681B6A9A4206D1FB6803F44C
:1046500070127B685B6A9A4201D0012300E000235C
:1046600018461837BD4680BD0010024080B584B0A2
:1046700000AF786039607B68002B01D10123D0E066
:104680006A4B1B6803F007033A689A4210D9674BDC
:104690001B6823F0070265493B6813430B60634BBB
:1046A0001B6803F007033A689A4201D00123B8E07F
:1046B0007B681B6803F00203002B20D07B681B681B
:1046C00003F00403002B05D0594B5B68584A43F4B0
:1046D000E06353607B681B6803F00803002B05D080
:1046E000534B5B68524A43F460535360504B5B68D2
:1046F00023F0F0027B689B684D4913434B607B6855
:104700001B6803F00103002B40D07B685B68012B22
:1047100007D1474B1B6803F40033002B15D101234D
:104720007FE07B685B68022B07D1414B1B6803F07D
:104730000073002B09D1012373E03D4B1B6803F08C
:104740000203002B01D101236BE0394B5B6823F09E
:1047500003027B685B68364913434B60FEF722FD1A
:10476000F8600AE0FEF71EFD0246FB68D31A41F22C
:104770008832934201D9032353E02D4B5B6803F049
:104780000C027B685B689B009A42EBD1274B1B684D
:1047900003F007033A689A4210D2244B1B6823F0B7
:1047A000070222493B6813430B60204B1B6803F050
:1047B00007033A689A4201D0012332E07B681B6804
:1047C00003F00403002B08D0194B5B6823F4E0626C
:1047D0007B68DB68164913434B607B681B6803F0FA
:1047E0000803002B09D0124B5B6823F460527B68EE
:1047F0001B69DB000E4913434B6000F021F80246B1
:104800000B4B5B681B0903F00F030A49CB5C22FAD0
:1048100003F3094A1360094B1B681846FEF780FC36
:10482000002318461037BD4680BD00BF002002405F
:1048300000100240E89A0008000000200400002058
:1048400080B487B000AF0023FB600023BB6000236F
:104850007B6100237B6000233B611E4B5B68FB6038
:10486000FB6803F00C03042B02D0082B03D027E0D5
:10487000194B3B6127E0FB689B0C03F00F03174AC1
:10488000D35C7B60FB6803F48033002B10D0114BAA
:104890005B685B0C03F00103114AD35CBB607B686F
:1048A0000D4A03FB02F2BB68B2FBF3F37B6104E049
:1048B0007B680C4A02FB03F37B617B693B6102E08E
:1048C000054B3B6100BF3B6918461C37BD4680BCA9
:1048D000704700BF0010024000127A00909E00084E
:1048E000A09E000800093D0080B400AF024B1B6889
:1048F0001846BD4680BC70470000002080B500AF60
:10490000FFF7F2FF0246054B5B681B0A03F0070343
:104910000349CB5C22FA03F3184680BD0010024025
:10492000F89A000880B500AFFFF7DEFF0246054B9E
:104930005B68DB0A03F007030349CB5C22FA03F34D
:10494000184680BD00100240F89A000880B485B077
:1049500000AF78600A4B1B680A4AA2FB03235B0A7C
:104960007A6802FB03F3FB6000BFFB685A1EFA6023
:10497000002BF9D100BF00BF1437BD4680BC704783
:1049800000000020D34D621080B586B000AF786083
:1049900000233B610023FB607B681B6803F001037D
:1049A000002B7DD00023FB754F4BDB6903F0805358
:1049B000002B0DD14C4BDB694B4A43F08053D36144
:1049C000494BDB6903F08053BB60BB680123FB7577
:1049D000464B1B6803F48073002B18D1434B1B68B4
:1049E000424A43F480731360FEF7DCFB386108E051
:1049F000FEF7D8FB02463B69D31A642B01D9032387
:104A00006DE03A4B1B6803F48073002BF0D0364BFB
:104A10001B6A03F44073FB60FB68002B2ED07B689D
:104A20005B6803F44073FA689A4227D02E4B1B6AE6
:104A300023F44073FB602E4B01221A602C4B0022A2
:104A40001A60294AFB681362FB6803F00103002B1C
:104A500014D0FEF7A7FB38610AE0FEF7A3FB02467D
:104A60003B69D31A41F28832934201D9032336E0DD
:104A70001D4B1B6A03F00203002BEED01A4B1B6A7E
:104A800023F440727B685B68174913430B62FB7D1C
:104A9000012B05D1144BDB69134A23F08053D361FA
:104AA0007B681B6803F00203002B08D00E4B5B6889
:104AB00023F440427B689B680B4913434B607B683F
:104AC0001B6803F01003002B08D0074B5B6823F42E
:104AD00080027B68DB68044913434B60002318465F
:104AE0001837BD4680BD00BF001002400070004076
:104AF0004004424280B588B000AF786000237B61FB
:104B00000023FB6100233B610023FB600023BB61AA
:104B10007B68102B0AD07B68102B00F28A807B68A0
:104B2000012B45D07B68022B75D082E0464B5B6839
:104B3000FB60454B1B6803F08073002B7BD0FB6848
:104B40009B0C03F00F03414AD35C3B61FB6803F409
:104B50008033002B15D03C4B5B685B0C03F00103EA
:104B60003B4AD35C7B61FB6803F48033002B0DD0A0
:104B7000384A7B69B2FBF3F23B6902FB03F3FB614A
:104B800004E03B69344A02FB03F3FB612E4B5B6894
:104B900003F48003B3F5800F02D1FB69BB614AE0E7
:104BA000FB695B002D4AA2FB03235B08BB6142E06B
:104BB000254B1B6AFB60FB6803F44073B3F5807FF1
:104BC00008D1FB6803F00203002B03D04FF400432D
:104BD000BB611FE0FB6803F44073B3F5007F09D1AC
:104BE000194B5B6A03F00203002B03D049F64043E4
:104BF000BB610FE0FB6803F44073B3F5407F1CD149
:104C0000114B1B6803F40033002B16D04FF22443E2
:104C1000BB6112E011E0FFF785FE02460A4B5B68BC
:104C20009B0B03F0030301335B00B2FBF3F3BB61A7
:104C300004E000BF02E000BF00E000BFBB6918460F
:104C40002037BD4680BD00BF00100240A49E000872
:104C5000B49E000800127A0000093D00ABAAAAAA7F
:104C600080B582B000AF78607B68002B01D1012352
:104C700041E07B6893F83D30DBB2002B06D17B68C6
:104C8000002283F83C207868FDF77EFE7B680222D4
:104C900083F83D207B681A687B6804331946104608
:104CA00000F0B2FA7B68012283F846207B6801227B
:104CB00083F83E207B68012283F83F207B68012235
:104CC00083F840207B68012283F841207B68012221
:104CD00083F842207B68012283F843207B6801220D
:104CE00083F844207B68012283F845207B680122F9
:104CF00083F83D20002318460837BD4680BD80B5A7
:104D000082B000AF78607B68002B01D1012341E0C5
:104D10007B6893F83D30DBB2002B06D17B68002224
:104D200083F83C20786800F039F87B68022283F829
:104D30003D207B681A687B6804331946104600F0F2
:104D400063FA7B68012283F846207B68012283F89E
:104D50003E207B68012283F83F207B68012283F894
:104D600040207B68012283F841207B68012283F880
:104D700042207B68012283F843207B68012283F86C
:104D800044207B68012283F845207B68012283F858
:104D90003D20002318460837BD4680BD80B483B04F
:104DA00000AF786000BF0C37BD4680BC7047000084
:104DB00080B584B000AF786039603B68002B09D1C2
:104DC0007B6893F83E30DBB2012B14BF0123002334
:104DD000DBB222E03B68042B09D17B6893F83F30BB
:104DE000DBB2012B14BF01230023DBB215E03B68CB
:104DF000082B09D17B6893F84030DBB2012B14BF3C
:104E000001230023DBB208E07B6893F84130DBB27A
:104E1000012B14BF01230023DBB2002B01D001239F
:104E20005EE03B68002B04D17B68022283F83E20C1
:104E300013E03B68042B04D17B68022283F83F20F7
:104E40000BE03B68082B04D17B68022283F84020EA
:104E500003E07B68022283F841207B681B68012203
:104E60003968184600F05CFC7B681B681E4A934258
:104E700007D17B681B685A6C7B681B6842F4004250
:104E80005A647B681B68184A93420ED07B681B6883
:104E9000B3F1804F09D07B681B68144A934204D059
:104EA0007B681B68124A934211D17B681B689B6820
:104EB00003F00703FB60FB68062B10D07B681B68C0
:104EC0001A687B681B6842F001021A6007E07B6881
:104ED0001B681A687B681B6842F001021A60002395
:104EE00018461037BD4680BD002C0140000400402C
:104EF0000008004080B586B000AFF860B9607A6005
:104F00000023FB75FB6893F83C30012B01D1022391
:104F1000AEE0FB68012283F83C207B680C2B00F29A
:104F20009F8001A252F823F05D4F000861500008F5
:104F300061500008615000089D4F00086150000852
:104F40006150000861500008DF4F00086150000800
:104F500061500008615000081F500008FB681B6882
:104F6000B968184600F0BEF9FB681B689A69FB68CF
:104F70001B6842F008029A61FB681B689A69FB682B
:104F80001B6822F004029A61FB681B689969BB6880
:104F90001A69FB681B680A439A6164E0FB681B6836
:104FA000B968184600F004FAFB681B689A69FB6848
:104FB0001B6842F400629A61FB681B689A69FB688F
:104FC0001B6822F480629A61FB681B689969BB6860
:104FD0001B691A02FB681B680A439A6143E0FB687D
:104FE0001B68B968184600F04DFAFB681B68DA695F
:104FF000FB681B6842F00802DA61FB681B68DA692B
:10500000FB681B6822F00402DA61FB681B68D9693F
:10501000BB681A69FB681B680A43DA6123E0FB6816
:105020001B68B968184600F097FAFB681B68DA69D4
:10503000FB681B6842F40062DA61FB681B68DA698E
:10504000FB681B6822F48062DA61FB681B68D9691F
:10505000BB681B691A02FB681B680A43DA6102E03D
:105060000123FB7500BFFB68002283F83C20FB7D19
:1050700018461837BD4680BD80B584B000AF786053
:1050800039600023FB737B6893F83C30012B01D11E
:105090000223B4E07B68012283F83C207B68022273
:1050A00083F83D207B681B689B68BB60BB6823F06E
:1050B0007703BB60BB6823F47F43BB607B681B68DE
:1050C000BA689A603B681B68B3F5005F3ED0B3F5E1
:1050D000005F00F28780B3F5805F00F08680B3F553
:1050E000805F7FD8702B1AD0702B7BD8602B50D06C
:1050F000602B77D8502B3CD0502B73D8402B58D0F6
:10510000402B6FD8302B64D0302B6BD8202B60D045
:10511000202B67D8002B5CD0102B5AD062E07B6824
:1051200018683B6899683B685A683B68DB6800F020
:10513000D8FA7B681B689B68BB60BB6843F0770349
:10514000BB607B681B68BA689A604FE07B68186830
:105150003B6899683B685A683B68DB6800F0C1FAB5
:105160007B681B689A687B681B6842F480429A607F
:105170003CE07B6818683B6859683B68DB681A4606
:1051800000F038FA7B681B685021184600F08FFA4F
:105190002CE07B6818683B6859683B68DB681A46F6
:1051A00000F056FA7B681B686021184600F07FFA11
:1051B0001CE07B6818683B6859683B68DB681A46E6
:1051C00000F018FA7B681B684021184600F06FFA5F
:1051D0000CE07B681A683B681B681946104600F0B3
:1051E00066FA03E00123FB7300E000BF7B68012245
:1051F00083F83D207B68002283F83C20FB7B184627
:105200001037BD4680BD000080B485B000AF786027
:1052100039607B681B68FB607B682F4A93420BD028
:105220007B68B3F1804F07D07B682C4A934203D050
:105230007B682B4A934208D1FB6823F07003FB6024
:105240003B685B68FA681343FB607B68224A9342C1
:105250000BD07B68B3F1804F07D07B681F4A934225
:1052600003D07B681E4A934208D1FB6823F4407345
:10527000FB603B68DB68FA681343FB60FB6823F064
:1052800080023B685B691343FB607B68FA681A60C5
:105290003B689A687B68DA623B681A687B689A6246
:1052A0007B680D4A934203D13B681A697B681A6395
:1052B0007B6801225A617B681B6903F00103002BA4
:1052C00005D07B681B6923F001027B681A6100BF6F
:1052D0001437BD4680BC7047002C014000040040DC
:1052E0000008004080B487B000AF786039607B6808
:1052F0001B6A7B617B681B6A23F001027B681A6270
:105300007B685B683B617B689B69FB60FB6823F0A3
:105310007003FB60FB6823F00303FB603B681B68C2
:10532000FA681343FB607B6923F002037B613B68EF
:105330009B687A6913437B617B681C4A93420CD15A
:105340007B6923F008037B613B68DB687A69134360
:105350007B617B6923F004037B617B68134A934282
:1053600011D13B6923F480733B613B6923F40073E3
:105370003B613B685B693A6913433B613B689B69EE
:105380003A6913433B617B683A695A607B68FA6803
:105390009A613B685A687B685A637B687A691A62CB
:1053A00000BF1C37BD4680BC704700BF002C0140C9
:1053B00080B487B000AF786039607B681B6A7B611E
:1053C0007B681B6A23F010027B681A627B685B684B
:1053D0003B617B689B69FB60FB6823F4E043FB60F7
:1053E000FB6823F44073FB603B681B681B02FA6890
:1053F0001343FB607B6923F020037B613B689B6860
:105400001B017A6913437B617B681D4A93420DD16E
:105410007B6923F080037B613B68DB681B017A6951
:1054200013437B617B6923F040037B617B68144AF3
:10543000934213D13B6923F480633B613B6923F4BE
:1054400000633B613B685B699B003A6913433B61C6
:105450003B689B699B003A6913433B617B683A69EF
:105460005A607B68FA689A613B685A687B689A63FD
:105470007B687A691A6200BF1C37BD4680BC7047E2
:10548000002C014080B487B000AF786039607B6841
:105490001B6A7B617B681B6A23F480727B681A62DB
:1054A0007B685B683B617B68DB69FB60FB6823F0C2
:1054B0007003FB60FB6823F00303FB603B681B6821
:1054C000FA681343FB607B6923F400737B613B68DC
:1054D0009B681B027A6913437B617B681D4A934278
:1054E0000DD17B6923F400637B613B68DB681B02A1
:1054F0007A6913437B617B6923F480637B617B68FA
:10550000144A934213D13B6923F480533B613B69B6
:1055100023F400533B613B685B691B013A69134309
:105520003B613B689B691B013A6913433B617B68A4
:105530003A695A607B68FA68DA613B685A687B6846
:10554000DA637B687A691A6200BF1C37BD4680BC8B
:10555000704700BF002C014080B487B000AF786076
:1055600039607B681B6A3B617B681B6A23F480524D
:105570007B681A627B685B687B617B68DB69FB60C8
:10558000FB6823F4E043FB60FB6823F44073FB609B
:105590003B681B681B02FA681343FB603B6923F4FA
:1055A00000533B613B689B681B033A6913433B61B3
:1055B0007B680F4A934209D17B6923F480437B6166
:1055C0003B685B699B017A6913437B617B687A69FD
:1055D0005A607B68FA68DA613B685A687B681A64CB
:1055E0007B683A691A6200BF1C37BD4680BC7047B1
:1055F000002C014080B487B000AFF860B9607A60D9
:10560000FB681B6A7B61FB681B6A23F00102FB6875
:105610001A62FB689B693B613B6923F0F0033B61C5
:105620007B681B013A6913433B617B6923F00A03E2
:105630007B617A69BB6813437B61FB683A699A6155
:10564000FB687A691A6200BF1C37BD4680BC704790
:1056500080B487B000AFF860B9607A60FB681B6AFD
:105660007B61FB681B6A23F01002FB681A62FB680F
:105670009B693B613B6923F470433B617B681B037F
:105680003A6913433B617B6923F0A0037B61BB68EC
:105690001B017A6913437B61FB683A699A61FB6875
:1056A0007A691A6200BF1C37BD4680BC704780B45F
:1056B00085B000AF786039607B689B68FB60FB68F1
:1056C00023F07003FB603A68FB68134343F0070361
:1056D000FB607B68FA689A6000BF1437BD4680BCE7
:1056E000704780B487B000AFF860B9607A603B6003
:1056F000FB689B687B617B6923F47F437B613B682C
:105700001A027B681A43BB6813437A6913437B61AF
:10571000FB687A699A6000BF1C37BD4680BC704741
:1057200080B487B000AFF860B9607A60BB6803F0FE
:105730001F03012202FA03F37B61FB681A6A7B698B
:10574000DB431A40FB681A62FB681A6ABB6803F005
:105750001F03796801FA03F31A43FB681A6200BF5A
:105760001C37BD4680BC704780B485B000AF786000
:1057700039607B6893F83C30012B01D1022346E06D
:105780007B68012283F83C207B68022283F83D205D
:105790007B681B685B68FB607B681B689B68BB6001
:1057A000FB6823F07003FB603B681B68FA681343D7
:1057B000FB607B681B68FA685A607B681B68164A46
:1057C00093420ED07B681B68B3F1804F09D07B6891
:1057D0001B68124A934204D07B681B68104A9342AC
:1057E0000CD1BB6823F08003BB603B685B68BA6880
:1057F0001343BB607B681B68BA689A607B680122B0
:1058000083F83D207B68002283F83C200023184663
:105810001437BD4680BC7047002C01400004004096
:105820000008004080B485B000AF78603960002384
:10583000FB607B6893F83C30012B01D102233DE0F3
:105840007B68012283F83C20FB6823F0FF023B6861
:10585000DB681343FB60FB6823F440723B689B6882
:105860001343FB60FB6823F480623B685B6813436F
:10587000FB60FB6823F400623B681B681343FB601A
:10588000FB6823F480523B681B691343FB60FB6891
:1058900023F400523B685B691343FB60FB6823F40D
:1058A00080423B68DB691343FB607B681B68FA68D6
:1058B0005A647B68002283F83C2000231846143782
:1058C000BD4680BC704780B582B000AF78607B6811
:1058D000002B01D1012342E07B6893F84130DBB219
:1058E000002B06D17B68002283F840207868FDF702
:1058F0009DF87B68242283F841207B681B68DA6866
:105900007B681B6822F40052DA60786800F0B8FD0A
:105910007B681B681A697B681B6822F490421A61D5
:105920007B681B685A697B681B6822F02A025A61EF
:105930007B681B68DA687B681B6842F40052DA6097
:105940007B6800225A647B68202283F841207B68B0
:10595000202283F842207B6800225A6300231846E5
:105960000837BD4680BD80B58AB002AFF860B96027
:105970003B601346FB8000237B61FB6893F841305A
:10598000DBB2202B75D1BB68002B02D0FB88002B2B
:1059900001D101236EE0FB6800225A64FB682122DA
:1059A00083F84120FDF7FEFB7861FB68FA889A8452
:1059B000FB68FA88DA84FB689B68B3F5805F08D1DE
:1059C000FB681B69002B04D10023FB61BB68BB6132
:1059D00003E0BB68FB610023BB612EE03B680093E2
:1059E0007B6900228021F86800F01DFB0346002B34
:1059F00005D0FB68202283F8412003233AE0FB69AD
:105A0000002B0BD1BB691B881A46FB681B68C2F3CD
:105A100008025A60BB690233BB6107E0FB691A7870
:105A2000FB681B685A60FB690133FB61FB68DB8C18
:105A30009BB2013B9AB2FB68DA84FB68DB8C9BB2B9
:105A4000002BCBD13B6800937B6900224021F86892
:105A500000F0E9FA0346002B05D0FB68202283F80A
:105A60004120032306E0FB68202283F84120002325
:105A700000E0022318462037BD4680BD80B584B0C3
:105A800000AFF860B9601346FB80FB6893F84230C2
:105A9000DBB2202B12D1BB68002B02D0FB88002B7D
:105AA00001D101230BE0FB6800221A63FB881A4630
:105AB000B968F86800F010FB034600E002231846BE
:105AC0001037BD4680BD000080B5BAB000AF786029
:105AD0007B681B681B68C7F8E4307B681B68DB6861
